:020000040800F2
:10000000E0060020CD010008250500086F04000867
:1000100021050008410300085B0A000800000000F9
:10002000000000000000000000000000C5060008FD
:100030004503000800000000AD050008D9070008CE
:10004000E7010008E7010008E7010008E7010008F0
:10005000E7010008E7010008E7010008E7010008E0
:10006000E7010008E7010008E7010008E7010008D0
:10007000E7010008E7010008E7010008E7010008C0
:10008000E7010008E7010008E7010008E7010008B0
:10009000E7010008E7010008E7010008E7010008A0
:1000A000E7010008E7010008E7010008E701000890
:1000B000E7010008E7010008E7010008E701000880
:1000C000E7010008E7010008E7010008E701000870
:1000D000E70100083D08000861080008E701000882
:1000E000E7010008E7010008E7010008E701000850
:1000F000E7010008E7010008E7010008E701000840
:10010000E7010008E7010008E7010008E70100082F
:10011000E7010008E7010008E7010008E70100081F
:10012000E7010008E7010008E7010008E70100080F
:1001300000F002F800F03AF80AA090E8000C8244BF
:100140008344AAF10107DA4501D100F02FF8AFF29C
:10015000090EBAE80F0013F0010F18BFFB1A43F0A5
:1001600001031847AC0C0000CC0C0000103A24BF6F
:1001700078C878C1FAD8520724BF30C830C144BF0C
:1001800004680C607047000000230024002500264E
:10019000103A28BF78C1FBD8520728BF30C148BFEA
:1001A0000B6070471FB51FBD10B510BD00F098F86B
:1001B0001146FFF7F7FF00F0D7FC00F0B6F803B4E4
:1001C000FFF7F2FF03BC00F067FC0000094880471E
:1001D00009480047FEE7FEE7FEE7FEE7FEE7FEE729
:1001E000FEE7FEE7FEE7FEE704480549054A064B41
:1001F00070470000DD07000831010008E000002022
:10020000E0060020E0020020E0020020704740EA03
:100210000103024630B59B0710D14FF0013400E0D6
:1002200008C208C91D1B9D4315EAC41FF8D013F06E
:10023000FF0102F8011B0DD01B0AF8E711F8013B82
:10024000002B02F8013B05D011F8013B002B02F80E
:10025000013BF3D130BD00004FF0013C50F8042BBE
:1002600051F8043B9A4221D1A2EB0C03934313EAC9
:10027000CC1317D150F8042B51F8043B9A4215D1F6
:10028000A2EB0C03934313EACC130BD150F8042BCD
:1002900051F8043B9A4209D1A2EB0C03934313EAB1
:1002A000CC13DBD04FF00000704700BFD01A01BA6A
:1002B000B1FA81F101F0180122FA01F0CB40C1F14D
:1002C0002001DBB2C0B2C01A2CFA01F3D11A91435B
:1002D00011EAC311E6D17047704770477047704705
:1002E000754600F029F8AE4605006946534620F0F1
:1002F0000700854618B020B5FFF776FFBDE820401F
:100300004FF000064FF000074FF000084FF0000BD1
:1003100021F00701AC46ACE8C009ACE8C009ACE884
:10032000C009ACE8C0098D4670470446AFF30080B1
:100330002046FFF744FF0000004870477C00002083
:1003400000BFFEE770472DE9F04102460025002678
:10035000002000230024002791F803C00CF00F05B3
:1003600091F803C00CF0100CBCF1000F03D091F811
:1003700002C04CEA050591F800C0BCF1000F31D075
:10038000146800202BE04FF0010C0CFA00F3B1F8D8
:1003900000C00CEA03069E4220D183004FF00F0CF0
:1003A0000CFA03F7BC4305FA03FC4CEA040491F889
:1003B00003C0BCF1280F06D14FF0010C0CFA00FC71
:1003C000C2F814C00AE091F803C0BCF1480F05D18F
:1003D0004FF0010C0CFA00FCC2F810C0401C0828B9
:1003E000D1D31460B1F800C0BCF1FF0F34DD546804
:1003F00000202EE000F1080C4FF0010808FA0CF381
:10040000B1F800C00CEA03069E4221D183004FF0F0
:100410000F0C0CFA03F7BC4305FA03FC4CEA040486
:1004200091F803C0BCF1280F05D100F1080C08FABF
:100430000CF8C2F8148091F803C0BCF1480F07D142
:1004400000F1080C4FF0010808FA0CF8C2F810800F
:10045000401C0828CED35460BDE8F081024600203D
:1004600093680B400BB1012000E00020704700BFF3
:10047000FEE7000008B50121402000F0A9F81C208B
:10048000ADF8000048208DF8030069460648FFF7E4
:100490005AFF0120ADF8000028208DF803006946BE
:1004A0000248FFF750FF08BD001801400008014056
:1004B0001848806940F0080016498861084680693C
:1004C00040F0400088611448006820F47000124930
:1004D00008600846006840F4401008600E480C3080
:1004E000006840F020000C490C3108600B4800689F
:1004F00020F47000094908600846006840F4401084
:10050000086006480C30006840F0200003490C31B8
:100510000860704700100240000C014000180140C4
:1005200000BFFEE77047000070B5002100230F22D6
:10053000C47804B3154C246804F4E064C4F5E064A2
:10054000210AC1F10403CA40447804FA03F1847813
:100550001440214309010E4C0678A155047804F09B
:100560001F050124AC4005786D11AD0005F1E025B3
:10057000C5F8004109E0047804F01F050124AC40EF
:10058000044D0678761145F8264070BD0CED00E06C
:1005900000E400E080E100E002490143024A11600A
:1005A000704700000000FA050CED00E07047000005
:1005B00029B1064AD2690243044BDA6104E0034AD6
:1005C000D2698243014BDA6170470000001002409B
:1005D00029B1064A92690243044B9A6104E0034A36
:1005E00092698243014B9A617047000000100240FB
:1005F00030B500210022002400232D4D6D6805F048
:100600000C0121B1042905D0082923D105E0294D89
:10061000056022E0274D05601FE0254D6D6805F45B
:100620007012234D6D6805F48034022505EB92426B
:100630001CB9214D554305600BE01D4D6D6805F457
:1006400000351DB11C4D5543056002E0194D554361
:10065000056002E0174D056000BF00BF144D6D68D6
:1006600005F0F0010909154D6B5C0568DD4045603A
:100670000F4D6D6805F4E061090A104D6B5C45682B
:10068000DD4085600A4D6D6805F46051C90A0B4D67
:100690006B5C4568DD40C560054D6D6805F4404103
:1006A000890B074D6B5CC568B5FBF3F5056130BD83
:1006B0000010024000127A0000093D002C000020CA
:1006C0003C000020704710B500F002F810BD00009B
:1006D0000CB50020019000903348006840F4803051
:1006E0003149086000BF3048006800F400300090D5
:1006F0000198401C0190009818B90198B0F5A06FBE
:10070000F1D12948006800F4003010B101200090B8
:1007100001E0002000900098012843D123480068A0
:1007200040F01000214908600846006820F00300EE
:1007300008600846006840F0020008601A484068F7
:10074000194948600846406848600846406840F4D7
:10075000806048600846406820F47C104860084685
:10076000406840F4E81048600846006840F0807037
:10077000086000BF0C48006800F000700028F9D045
:100780000948406820F0030007494860084640686F
:1007900040F00200486000BF0348406800F00C00D1
:1007A0000828F9D10CBD00000010024000200240D2
:1007B000042808D14FF0E021096941F004014FF00D
:1007C000E022116107E04FF0E021096921F0040106
:1007D0004FF0E022116170477047000010B51348D8
:1007E000006840F00100114908600846406810495F
:1007F00008400E494860084600680E4908400B4909
:1008000008600846006820F48020086008464068B8
:1008100020F4FE0048604FF41F008860FFF753FF8C
:100820004FF000600449086010BD00000010024055
:100830000000FFF8FFFFF6FE08ED00E010B540F203
:100840002551064800F045F838B1044800F0FCF89E
:10085000C4B22146014800F0FCF810BD0038014048
:1008600010B540F225510A4800F033F870B108483D
:1008700000F0EAF80749084A1268885407480068F7
:1008800020B905480068401C0349086010BD0000FD
:100890000044004040000020000000200C00002028
:1008A00021B1828942F40052828104E082894DF6AE
:1008B000FF731A408281704702460020B1F5007F25
:1008C00000D100BF13880B400BB1012000E00020D5
:1008D000704770B50246002400230025002040F632
:1008E0006A16B14200D100BFC1F3421501F01F03E7
:1008F000012606FA03F3012D02D19689334006E062
:10090000022D02D1168A334001E0968A33400C1240
:10091000012606FA04F41688344013B10CB1012004
:1009200000E0002070BDF0B503460024002600253D
:10093000002040F66A17B94200D100BF1846C1F343
:10094000421401F01F06012707FA06F5012C01D118
:100950000C3004E0022C01D1103000E014301AB148
:1009600007682F43076002E00768AF430760F0BDE8
:100970002DE9F04786B005460E460024A24600BF8A
:10098000A1460027B08900B100BF2F462C8A4CF643
:10099000FF700440F08804432C82AC894EF6F310BB
:1009A0000440B08831890843718908430443AC810D
:1009B000AC8A4FF6FF400440B0890443AC8201A8E2
:1009C000FFF716FE1F48874202D1DDF810A001E0B4
:1009D000DDF80CA0A88900F4004040B10AEBCA0081
:1009E00000EB0A1031684900B0FBF1F807E00AEBB0
:1009F000CA0000EB0A1031688900B0FBF1F86420EE
:100A0000B8FBF0F004012009642101FB1089A889DA
:100A100000F4004040B1322000EBC900B0FBF1F01F
:100A200000F00700044308E0322000EB09106421C5
:100A3000B0FBF1F000F00F0004432C8106B0BDE8DC
:100A4000F08700000038014001468888C0F30800A4
:100A50007047C1F308028280704700BFFEE770B59F
:100A600004460D4629462046FFF7F3FF00BF8021CC
:100A70002046FFF721FF0028F9D070BD70B506466B
:100A80000C46002500BF615D3046FFF7E8FF6D1C96
:100A9000605D0028F7D170BD014600BF70470000BF
:100AA000002003E00021034A1154401C1428F9DB04
:100AB000704700004000002010B56FF00400FFF701
:100AC00077FE0A4800680A49B0FBF1F0094908704E
:100AD0000846007800EB4001C1EBC0104FF6FF71F3
:100AE00001EAC0000449088010BD00001400002085
:100AF00000127A00280000202A0000200146114A36
:100B000012884A434FF0E0235A6100229A611A4644
:100B1000126942F001021A6100BF4FF0E022106931
:100B200000F001021AB100F48032002AF5D04FF033
:100B3000E022126922F001024FF0E0231A61002244
:100B40009A6170472A00002010B50020044908600F
:100B50006420FFF7D3FF01200249C1F8940110BDC2
:100B600094012342000023424FF4A060FFF714FDDC
:100B7000FFF780FC00F09AF8FFF79AFC4820FFF797
:100B80009BFF7AE010213D48FFF768FCC8B91E20A2
:100B9000FFF7B4FF10213948FFF760FC88B900BFA8
:100BA00010213648FFF75AFC0028F9D001203449BB
:100BB0000860344908600020334908600120334947
:100BC000086008212D48FFF749FCC8B91E20FFF72F
:100BD00095FF08212948FFF741FC88B900BF08218B
:100BE0002648FFF73BFC0028F9D002202449086082
:100BF0002449086000202449086001202349086036
:100C000020480068012802D002282BD118E020A13A
:100C10002048FFF733FFC820FFF770FF1EA11D48D3
:100C2000FFF72CFF00201749086044F62060FFF70B
:100C300065FF01201949086000201949086017E084
:100C400018A11448FFF71AFF00200E49086049F662
:100C50004040FFF753FF0120104908600020104971
:100C6000086005E0FFF71CFF00200D49086000BF89
:100C700000BF00F08FF800F06FF883E70018014024
:100C80001000002008000020040000209481214270
:100C90002B2B2B0000440040610000000C000020C2
:100CA0000000002041542B5A0D0A000000B587B007
:100CB00001210420FFF78CFC01214804FFF778FC98
:100CC0000420ADF8180018208DF81B0003208DF8C3
:100CD0001A0006A91E48FFF736FB0820ADF81800D9
:100CE00004208DF81B0003208DF81A0006A918486F
:100CF000FFF729FB4FF4E13002900020ADF814001B
:100D00000C20ADF812000020ADF81000ADF80E0078
:100D1000ADF80C0002A90F48FFF72AFE01210D488B
:100D2000FFF7BEFD012240F225510A48FFF7FBFD07
:100D300026208DF8040001208DF807008DF80500AD
:100D40008DF8060001A8FFF7EFFB07B000BD00001B
:100D5000000801400044004010B507A10A48FFF711
:100D600056FA0A490848FFF777FA20B9FFF798FEC4
:100D700000200749086010BD0D0A5B5553522D37FE
:100D800053342056325D00006800002040000020EF
:100D90000000002010B513480068012821D1124836
:100DA0000068012804D111A11248FFF730FA07E0CA
:100DB0000D480068022803DB0FA10E48FFF727FA51
:100DC00011490C48FFF748FA20B9FFF7BDFE002093
:100DD00004490860FFF764FE00200C4908600149DF
:100DE000086010BD0C00002010000020612B6F6B0C
:100DF0000D0A00005400002041542B5A0D0A0D0A20
:100E00004F4B0D0A0D0A000040000020000000209A
:100E1000300E000800000020400000006C010008B7
:100E2000700E000840000020A006000088010008A5
:100E300000000000000000000000000000000000B2
:100E40000000000000A24A040000000000000000B2
:100E5000010203040607080900000000000000006A
:100E6000010203040102030406070809020406083C
:04000005080001CD21
:00000001FF
