:020000040800F2
:100000008009002049010008EF180008F7170008D0
:10001000ED180008E9070008551F0008000000005F
:10002000000000000000000000000000A31B00080A
:10003000EB070008000000003F1B0008A51B00089C
:100040006301000863010008630100086301000800
:1000500063010008630100086301000863010008F0
:1000600063010008630100086301000863010008E0
:1000700063010008630100086301000863010008D0
:1000800063010008630100086301000863010008C0
:1000900063010008630100086301000863010008B0
:1000A00063010008630100086301000863010008A0
:1000B0006301000863010008630100086301000890
:1000C0006301000863010008630100086301000880
:1000D00063010008491F000863010008630100086C
:1000E0006301000863010008630100086301000860
:1000F0006301000863010008630100086301000850
:10010000630100086301000863010008630100083F
:10011000630100086301000863010008630100082F
:10012000630100086301000863010008630100081F
:10013000DFF810D000F046FB00480047B128000867
:10014000AFF300808009002006488047064800473A
:10015000FEE7FEE7FEE7FEE7FEE7FEE7FEE7FEE777
:10016000FEE7FEE7A91B000831010008D2B201E05A
:1001700000F8012B491EFBD270470022F6E710B5AC
:1001800013460A4604461946FFF7F0FF204610BD05
:1001900030B480EA010202F0004530F0004221F064
:1001A000004013D090B1C30DD40DC2F31601C0F3BB
:1001B0001600E41A41F4000140F400027D3491423B
:1001C00001D3641C00E04900002C02DA30BC00209E
:1001D00070474FF400000023914201D3891A034372
:1001E00040084FEA4101F7D151B1914202D14FF09D
:1001F000004105E002D24FF0010101E06FF0010182
:1002000003EBC450284430BC00F030BA2DE9FE4F57
:10021000804681EA0300C00F0C46009021F00041A7
:1002200023F00045B8EB0200A94105D24046214623
:1002300090461C460B46024623F00040104347D030
:10024000270DC7F30A00C3F30A510290401A019028
:1002500040286BDAC3F3130040F4801B00989246E9
:1002600020B10023D2EB030A63EB0B0B0198594634
:10027000C0F14002504600F0C8F906460D4650460F
:100280005946019A00F0E0F910EB080061410024A2
:1002900087EA115284EAE7731A4340D0009A62B3A6
:1002A000019A012A4FEA075215DC001B61EB02019B
:1002B0004FF0004202EA0752CDE90042001C41F52E
:1002C000801132462B4600F017FA03B0BDE8F08FDC
:1002D00040462146F9E7001B61EB0201001C41F595
:1002E000801300185B412018A2F5001747EB0301AB
:1002F00040EAD570B6196D4111E06D084FEA360637
:1003000045EAC0754FEA0752001B61EB0201001C71
:1003100041F5801149084FEA300000195141324639
:100320002B4603B0BDE8F04F00F0D7B9009801228A
:1003300040000023D0EB020263EBE07300982146FB
:100340004FEAE074B8EB000061EB0401E9E783F0E9
:1003500000435BE781F0004158E72DE9FE4F81EA59
:10036000030404F0004421F0004100944FF0000B1E
:1003700023F0004350EA01045ED052EA03045BD04C
:10038000C3F30A54C1F30A552C44A4F2F334019484
:10039000A0FB0254C1F3130141F48011C3F3130312
:1003A00043F4801301FB024400FB034E840A970AC6
:1003B00044EA815447EA8357A4FB076802958D0AF3
:1003C00005FB07854FEA932C04FB0C542705029D7F
:1003D0004FEA065847EA1637B5EB08056EEB070CEF
:1003E000870E920E47EA811742EA8312A7FB0201A9
:1003F000B6EB0B0164EB00042B0D43EA0C335E18E3
:1004000044EB1C50DA465146E7FB0201C5F31304E6
:100410004FEA0B3343EA14534FEA0432019C43EA98
:100420000603A4F10C040294009CCDE900B400F092
:1004300063F903B0BDE8F08F00200146F9E72DE92C
:10044000F04D81EA030404F0004B21F0004514460E
:100450004FF0000A23F0004150EA050220D054EA90
:1004600001021DD0C5F30A570246C5F31303C1F3B9
:100470001300C1F30A5640F4801543F48013A7EB30
:100480000608101BD64608F2FD3873EB050002D3B0
:1004900008F1010801E092185B41B8F1000F03DA9E
:1004A00000200146BDE8F08D00204FF48011064683
:1004B00084460EE0171B73EB050705D3121B63EB95
:1004C000050306434CEA010C49084FEA3000921834
:1004D0005B4150EA0107EDD152EA030012D082EAF3
:1004E000040083EA0501084305D0101BAB4106D286
:1004F0000122002306E000224FF0004302E06FF0EB
:10050000010253101AEB06004CEB085110EB0A00E5
:1005100041EB0B01BDE8F04D00F0DFB8962300225F
:10052000114600F0ACB800F0004230F000400AD0B4
:10053000C10D01F56071C0F3160042EA0151C20815
:1005400040071143704700200146704730B5041E34
:1005500071F1000404DB4FF00044404264EB010100
:10056000141E73F1000405DB1C464FF00043524299
:1005700063EB0403994208BF904230BD30B50B468F
:10058000014600202022012409E021FA02F59D42C3
:1005900005D303FA02F5491B04FA02F52844151E97
:1005A000A2F10102F1DC30BD2DE9F05F054600202B
:1005B00092469B4688460646814640241BE02846D4
:1005C00041464746224600F02FF853465A46C01A85
:1005D000914110D311461846224600F016F82D1A04
:1005E00067EB01084F4622460120002100F00DF87C
:1005F00017EB00094E41201EA4F10104DFDC484640
:1006000031462A464346BDE8F09F202A04DB203AC3
:1006100000FA02F1002070479140C2F1200320FA55
:1006200003F3194390407047202A04DB203A21FA53
:1006300002F00021704721FA02F3D040C2F12002FB
:100640009140084319467047202A06DBCB17203A11
:1006500041FA02F043EAE07306E041FA02F3D040C7
:10066000C2F1200291400843194670470029A8BFF3
:100670007047401C490008BF20F00100704710B4CB
:10068000B0FA80FC00FA0CF050EA010404BF10BC80
:10069000704749B1CCF1200421FA04F411FA0CF1AD
:1006A00018BF012121430843A3EB0C01CB1D4FEAE6
:1006B00000614FEA102042BF002010BC704700EBE1
:1006C000C35010440029A4BF10BC7047401C49000F
:1006D00008BF20F0010010BC704710B5141E73F164
:1006E000000408DA401C41F1000192185B411A43F2
:1006F00001D120F0010010BD2DE9F04D92469B463E
:1007000011B1B1FA81F202E0B0FA80F220329046E3
:10071000FFF77BFF04460F4640EA0A0041EA0B015F
:1007200053465A46084313D0114653EA010019D0E4
:10073000C8F140025046FFF777FF05460E46504687
:1007400059464246FFF761FF084305D0012004E007
:1007500020463946BDE8F08D0020054346EAE076A4
:100760002C4337430A986305E40AA0EB08000022F3
:10077000FD0A44EA47540A3002D500200146E9E761
:10078000010510196941DDE9084500196941BDE815
:10079000F04DA2E7C1F30A52C1F3130140F2FF3357
:1007A00041F480119A4202DA00200146704740F27B
:1007B00033439A42A2F2334202DC5242FFF734BF83
:1007C000FFF723BF064C074D06E0E06840F0010349
:1007D00094E8070098471034AC42F6D3FFF7ACFC1E
:1007E000E42A0008042B0008FEE7704710B590F8D3
:1007F00021100022022905D00421816380F82020E5
:10080000012010BD01680B6823F00E030B60016826
:100810000B6823F001030B6090F84030C46B01219A
:1008200001FA03F3636080F8211080F8202010465D
:1008300010BD00002DE9F05F002590F8211002297D
:1008400003D004218163012595E001680A6822F044
:100850000E020A6001680A6822F001020A60474E2F
:10086000464FB215DFF814C1DFF81081DFF80C91A4
:10087000DFF808A1DFF804B10168783F1301140222
:10088000ACF1640CA8F15008A9F13C09AAF1280ABE
:10089000ABF1140B4FF4801EB1422FD9B94201D1F4
:1008A000012227E0614501D1102223E0414521D0FA
:1008B000494501D11A461DE0514501D1224619E0B2
:1008C000594501D1724615E02D4EB14201D10122A8
:1008D00010E02B4E1436B14201D110220AE0284E0E
:1008E0002836B14206D0264A3C32914201D11A46FE
:1008F00000E022462249091F0A6033E0B94201D1D3
:1009000001222CE0614501D1102228E0414526D08A
:10091000494501D11A4622E0514501D122461EE047
:10092000594501D172461AE0B14202D14FF08072AE
:1009300015E0134EB14201D1012210E0104E1436E1
:10094000B14201D110220AE00D4E2836B14206D044
:100950000B4A3C32914201D11A4600E02246074937
:1009600080394A60012180F82110002180F8201090
:10097000416B01B188472846BDE8F09F80000240E6
:10098000080402402DE9F84F00240023DFF8E0912D
:100990004FF00F08A9F1040B09F1040AABF1040EA2
:1009A000DFE00127A7403A40BA4275D1DFF8C4C161
:1009B0004D68A5EB0C0665452BD00DDC032D34D01E
:1009C00005DC35B3012D19D0022D2FD11BE0112DDF
:1009D00016D0122D2AD119E0B6F5881F19D006DCE1
:1009E000B6F5803F15D0B6F5801F1FD111E0B6F5E2
:1009F000001F0ED0B6F5041F18D10AE0CB6815E031
:100A0000CB681B1D12E0CB6808330FE0CB680C33BA
:100A10000CE08B6823B1012B04D00823476105E06B
:100A2000042303E00823076100E00023FF2A01D824
:100A3000054601E000F1040502D84FEA840603E010
:100A4000A4F108064FEA86062F6808FA06FC27EA92
:100A50000C0703FA06F647EA06072F604D68ED001B
:100A60007ED5454DAE6946F00106AE61AD6905F033
:100A700001050095414D24F003067719BE68A507CE
:100A80002D0F08FA05FC26EA0C06DFF8F4C06045D5
:100A900003D14FF0000C25E062E0DFF8E8C06045CC
:100AA00002D14FF0010C1DE0DFF8DCC0604502D13F
:100AB0004FF0020C16E0DFF8D4C0604502D14FF0D1
:100AC000030C0FE0DFF8C8C0604502D14FF0040C02
:100AD00008E0DFF8C0C0604502D14FF0050C01E02E
:100AE0004FF0060C0CFA05FC4CEA060CC7F808C0DF
:100AF0004D68ED0205D5D9F800501543C9F80050EE
:100B000004E0D9F800509543C9F800504D68AD0293
:100B100005D5DAF800501543CAF8005004E0DAF8B9
:100B200000509543CAF800504D68AD0305D5DBF879
:100B300000501543CBF8005004E0DBF8005095431B
:100B4000CBF800504D68ED0305D5DEF80050154395
:100B5000CEF8005004E0DEF800509543CEF8005087
:100B6000641C0A6832FA04F57FF41BAFBDE8F88F05
:100B70000804014000001110001002400000014074
:100B800000080140000C0140001001400014014029
:100B900000180140001C0140C26821EA02030A401B
:100BA00043EA024101617047002A01D001617047A8
:100BB0000904016170470000014880687047000027
:100BC0001C0000200248816802781144816070474F
:100BD0001C00002010B50748016841F010010160B9
:100BE000032000F059F80F2000F006F800F026F876
:100BF000002010BD0020024070B504460D4D4FF49A
:100C00007A712878B1FBF0F00B490968B1FBF0F07C
:100C100000F00CFB08B1012070BD102C07D200229F
:100C20002146501E00F018F86C60002070BD0120B5
:100C300070BD00001C000020180000207047002834
:100C400009DB00F01F02012191404009800000F102
:100C5000E020C0F800117047F0B40D460D4B1B6842
:100C6000C3F30223C3F10704042C00D90424191D83
:100C7000072901D2002300E0DB1E012606FA04F159
:100C8000491E294099409E40761E16403143F0BCD3
:100C900001F072B90CED00E000F00701054A1068A0
:100CA0004FF6FF03184040EA012003490843106053
:100CB000704700000CED00E00000FA052DE9F04758
:100CC00004460D46002C17D0DFF83081D8F800001C
:100CD00000F00700A84211D2D8F8000020F0070069
:100CE0002843C8F80000D8F8000000F00700A84228
:100CF00004D00120BDE8F0870120FBE72068404ECA
:100D0000810712D5400703D5706840F4E060706039
:100D10002078000703D5706840F4605070607068F8
:100D2000A16820F0F000084370602078C0072CD044
:100D30006068012806D0022809D0316889070BD4E1
:100D40000120D7E73168890306D40120D2E7316852
:100D5000890101D40120CDE7716821F0030101432D
:100D60007160FFF729FF074641F2883906E0FFF777
:100D700023FFC01B484501D90320BBE770686168A9
:100D800000F00C00B0EB810FF1D1D8F8000000F0BA
:100D90000700A8420ED9D8F8000020F00700284329
:100DA000C8F80000D8F8000000F00700A84201D001
:100DB00001209FE72078400705D57068E16820F49E
:100DC000E060084370602078000706D570682169EC
:100DD00020F4605040EAC100706000F03FF8716894
:100DE000084AC1F30311515CC8400749086007482D
:100DF0000068FFF701FF00207CE7000000200240B0
:100E000000100240B82A000818000020200000202E
:100E100001480068704700001800002000B5FFF787
:100E2000F7FF04494968044AC1F30221515CC840F4
:100E300000BD000000100240C82A000800B5FFF7FE
:100E4000E7FF04494968044AC1F3C221515CC84024
:100E500000BD000000100240C82A00080E4B59686F
:100E60000E4801F00C02042A11D0082A0FD10C48B8
:100E7000C1F38342805CC9030AD55968084AC1F3AB
:100E80004041921E515C054A5043B0FBF1F070475F
:100E900004494843704700000010024000127A00E5
:100EA000D22A000800093D002DE9F84F0446002C25
:100EB0000ED02078D94DC0075ED06868C0F381009D
:100EC00001280BD06868C0F38100022803D00CE031
:100ED0000120BDE8F88F6868C00306D52868800344
:100EE0004AD56068A8BB0120F3E76068B0F5803F91
:100EF00011D0A8B1B0F5A02F1BD0286820F4803005
:100F00002860286820F480202860606830B3FFF7EC
:100F100053FE06461EE0286840F480302860F4E75F
:100F2000286820F480302860286820F48020286019
:100F3000EBE7286840F480202860286840F480307F
:100F40002860E2E7FFF738FE801B642802D90320FF
:100F5000BFE711E028688003F4D50DE0FFF72CFE11
:100F6000064606E0FFF728FE801B642801D903200F
:100F7000AFE728688003F5D42078DFF8A4828007E3
:100F80004FF0010A4FF0000945D5686810F00C0FCA
:100F900007D06868C0F38100022812D16868C003D6
:100FA0000FD42868800704D52069012801D00120CA
:100FB0008FE72868616920F0F80040EAC1002860E6
:100FC00029E02069B8B1C8F800A0FFF7F5FD064692
:100FD00006E0FFF7F1FD801B022801D9032078E726
:100FE00028688007F5D52868616920F0F80040EA94
:100FF000C10028600FE0C8F80090FFF7DDFD06464D
:1010000006E0FFF7D9FD801B022801D9032060E725
:1010100028688007F5D42078000726D58148A16983
:1010200099B1C0F800A0FFF7C7FD064606E0FFF73C
:10103000C3FD801B022801D903204AE7686A8007A4
:10104000F5D5012000F07CFD0FE0C0F80090FFF71F
:10105000B3FD064606E0FFF7AFFD801B022801D96D
:10106000032036E7686A8007F5D42078400773D5F7
:101070000026E869C00008D4E86940F08050E861C3
:10108000E86900F0805000900126DFF89CB1DBF8A1
:101090000000C00514D4DBF8000040F48070CBF8E9
:1010A0000000FFF789FD074606E0FFF785FDC01B3E
:1010B000642801D903200CE7DBF80000C005F4D553
:1010C000E068012812D0B0B105281DD0286A20F0B0
:1010D00001002862286A20F004002862E06841F2DA
:1010E000883B28B3FFF768FD07461DE0286A40F0FB
:1010F00001002862F2E7286A20F001002862286ACD
:1011000020F004002862E9E7286A40F00400286221
:10111000286A40F001002862E0E7FFF74DFDC01BA0
:10112000584501D90320D4E6286A8007F5D50DE09B
:10113000FFF742FD074606E0FFF73EFDC01B58459E
:1011400001D90320C5E6286A8007F5D4012E03D112
:10115000E86920F08050E861E069A0B36968C1F3F4
:101160008101022946D0022805D0C8F86090FFF717
:1011700023FD04463AE0C8F86090FFF71DFD0646DF
:1011800006E0FFF719FD801B022801D90320A0E625
:1011900028688001F5D4206AB0F5803F05D16868E1
:1011A000A16820F4003008436860D4E908010843CE
:1011B000696821F4741108436860C8F860A0FFF7FB
:1011C000FBFC044607E026E0FFF7F6FC001B0228C4
:1011D00001D903207DE628688001F5D51BE0FFF7E3
:1011E000EBFC001B022801D9032072E6286880016D
:1011F000F5D410E001280CD06868226A00F4803130
:10120000914204D1616A00F47010884203D0012039
:101210005FE601205DE600205BE600000010024072
:1012200000004242800442420070004010B5401E5F
:10123000B0F1807F01D3012010BD4FF0E024606148
:101240000F21601700F098FE0020A06107202061A8
:10125000002010BD10B50446002C03D094F83D00CA
:1012600010B107E0012010BD002084F83C002046AA
:1012700000F016F8022084F83D00211D206800F0DF
:1012800095FC01203D3460726070A070E0702071A8
:101290006071A071E07120722070002010BD00000C
:1012A00000B585B00021019102910391049100687D
:1012B000B0F1804F16D10C48816941F00401816181
:1012C000816901F004010091C16941F00101C1612E
:1012D000C06900F0010000900120019001A90348BD
:1012E000FFF750FB05B000BD0010024000080140B0
:1012F00090F83D10012901D001207047022180F8AB
:101300003D100068104988420ED0104988420BD029
:10131000B0F1804F08D00E49884205D00D4988426F
:1013200002D00D49884209D1816801F007010629E0
:1013300008D0016841F00101016003E0016841F05B
:101340000101016000207047002C01400034014081
:101350000004004000080040000C004070B5044646
:10136000002594F83C00012817D0012684F83C6041
:10137000022084F83D002068826822F0770222F47F
:101380007F4282600868502838D00DDC202853D076
:1013900005DC90B3102811D14EE0022070BD30283A
:1013A0004AD040280AD13DE0602831D070280CD0C6
:1013B000B0F5805F03D0B0F5005F12D001253C345A
:1013C000667000202070284670BDCB68D1E90121ED
:1013D000206800F03BFC2068816841F07701816063
:1013E000EDE7CB68D1E90121206800F02FFC2068EF
:1013F000816841F480418160E1E71DE0CA68496885
:10140000206800F035FC5021206800F029FCD6E768
:10141000CA684968206800F03CFC6021206800F040
:101420001FFCCCE7CA684968206800F021FC402115
:10143000206800F015FCC2E722680146104600F063
:101440000FFCBCE770477047F8B504462268106887
:10145000D168536900F00F06002E08D1850606D525
:101460008D0604D52046BDE8F84000F060BC00259C
:10147000002E66D003F0010601F49077374360D068
:10148000C20705D0CA0503D5626C42F0010262644E
:10149000420705D5DA0703D0626C42F002026264AB
:1014A000820705D5DA0703D0626C42F00402626459
:1014B000020707D501F02002324303D0626C42F0EC
:1014C00008026264626C002A31D0800604D5880666
:1014D00002D5204600F02BFC20684069C0F3801044
:1014E000616C090700D438B3204600F0ECFB20689B
:1014F000406940061CD52068143050E8001F21F0D8
:10150000400140E80012002AF5D1E06B60B1594972
:101510004163E06BFFF78EF9002808D0E06B416B68
:1015200001B0BDE8F04008472046FFF78CFFF8BD4A
:101530002046FFF788FFF8BD2046FFF784FF65646B
:10154000F8BD236B012B7DD1C3067BD5CB067ED5A1
:1015500010685068009050694FF0200340064FF02B
:10156000020643D5E16B0868406880B20028E7D0E6
:10157000A28D8242E4D9E085886920282DD0206898
:101580000C3050E8001F21F4807140E80012002A5E
:10159000F5D12068143050E8001F21F0010140E827
:1015A0000012002AF5D12068143050E8001F21F005
:1015B000400140E80012002AF5D184F8423025634A
:1015C00020680C3050E8001F21F0100140E80012A4
:1015D000002AF5D1E06BFFF709F96663A08DE18D74
:1015E000401A81B22046FFF72DFFF8BDA08DE18D96
:1015F000401A81B2E08D0028F7D00029F5D020688C
:101600000C3050E8002F22F4907240E80027002FA1
:10161000F5D12068143050E8002F22F0010240E894
:101620000027002FF5D184F84230256320680C3064
:1016300050E8002F22F0100240E80023002BF5D1E3
:10164000666300E003E02046FFF7FCFEF8BD0206FB
:1016500006D50A0604D52046BDE8F84000F044BC93
:101660004006F3D54806F1D52046BDE8F84000F025
:1016700051BB0000B71C000870B50446002C04D014
:1016800094F84100002510B106E0012070BD84F8F7
:101690004050204600F024F8242084F841002068BF
:1016A000C16821F40051C160204600F0A5FB20680C
:1016B000016921F4904101612068416921F02A010A
:1016C00041612068C16841F40051C1606564202017
:1016D00084F8410084F842006563002070BD00007A
:1016E00010B586B000681E49884236D11D48816910
:1016F00041F004018161816901F004010191816976
:1017000041F004018161816901F004010191816965
:1017100041F480418161806900F4804001904FF480
:101720000070029002200390012004900320059095
:101730000D4C02A92046FFF725F921150291002141
:10174000039102A92046FFF71DF92520FFF777FA3C
:10175000032211462520FFF77FFA06B010BD0000D6
:1017600000380140001002400008014090F842306B
:10177000202B01D00220704721B11AB1002303634E
:1017800000F096BB0120704730B4006816498842CB
:1017900028D1164A5088010419D411464404097806
:1017A0004FF0000307D50A2901D053800FE040F421
:1017B000004050800BE00D2910D00D4DC0F30D04FA
:1017C0002955401C80B25080C72800D95380084852
:1017D000012230BC0549C830FFF7C8BF40F4804043
:1017E0005080F4E730BC7047003801401000002002
:1017F000280400207047FEE7F0B585B01C488169D9
:1018000041F040018161816901F0400100918169ED
:1018100041F040018161816901F0400100918169DD
:1018200041F004018161806900F004000090102003
:1018300001900024029401250395032604960D4F80
:1018400001A93846FFF79EF80821019102940395FB
:10185000049601A93846FFF795F8019502940220F5
:101860000390049601A90448FFF78CF805B0F0BD79
:1018700000100240001801400008014030B585B05A
:101880001748816941F008018161816901F008010F
:101890000091816941F040018161806900F0400060
:1018A00000902024019401200290039003200490D2
:1018B0000C4D01A92846FFF765F801940A4C01A9CF
:1018C0002046FFF75FF8012220212846FFF76CF938
:1018D000012220212046FFF767F905B030BD000046
:1018E00000100240000C014000180140FEE7704764
:1018F00010B50021074C0022002004EBC1131A543C
:10190000401CC0B28028FAD3491CC9B20829F3D3BD
:1019100010BD00002800002000B585B000214FF464
:101920007A720020401C9042FCD3491C9142F8D3AB
:101930000E48816941F008018161806900F008006A
:101940000090C020019011200290002003900320FD
:10195000049001A90648FFF715F8012000F0B6F839
:10196000012000F0BBF805B000BD000000100240EF
:10197000000C014070B505460024802626FA04F0CC
:10198000284000D0012000F0A9F8012000F09EF8C6
:10199000002000F09BF8641CE4B2082CEED3012078
:1019A00000F094F8BDE87040002000F08FB810B54A
:1019B000012000F093F8012000F088F8002000F0EA
:1019C0008DF8BDE81040002000F080B810B5002070
:1019D00000F084F8012000F079F8BDE81040012003
:1019E00000F07CB810B5FFF797FFAE2000F07EF84E
:1019F000D52000F07BF8802000F078F8A82000F0D7
:101A000075F83F2000F072F8D32000F06FF8002046
:101A100000F06CF8402000F069F8A12000F066F8B2
:101A2000C82000F063F8DA2000F060F8122000F01F
:101A30005DF8812000F05AF8CF2000F057F8D92047
:101A400000F054F8F12000F051F8DB2000F04EF8DF
:101A5000302000F04BF8A42000F048F8A62000F059
:101A600045F88D2000F042F8142000F03FF8AF2038
:101A700000F03CF8FFF73CFFBDE8104000F012B862
:101A800010B50C4640F0B00000F030F8102040EAED
:101A9000141000F02BF804F00F00BDE8104000F027
:101AA00025B8000070B50024074D00212046FFF73F
:101AB000E7FF05EBC410802100F029F8641CE4B2B4
:101AC000082CF2D370BD00002800002002464021FF
:101AD0000148FFF769B80000000C01400246802170
:101AE0000148FFF761B80000000C014010B5044642
:101AF000FFF75DFF7820FFF73DFF0020FFF73AFF7B
:101B00002046FFF737FFBDE81040FFF75FBF70B515
:101B100005460E46FFF74BFF7820FFF72BFF4020CE
:101B2000FFF728FF002404E0285DFFF723FF641C73
:101B3000E4B2B442F8D3BDE87040FFF747BF704746
:101B400008B507494FF4FA520968B1FBF2F1414375
:101B5000009100BF0098411E0091FAD208BD00001C
:101B60001800002010B5FFF735F84FF4E01000F032
:101B700033FF482000F066FE642000F069FE4FF459
:101B8000E13000F07DFFFFF779FEFFF735FEFFF74C
:101B900029FF00F055FFBDE810404FF47A7000F0C7
:101BA00057BE7047FFF70EB8704700002DE9F041AF
:101BB0000268214D214E224FDFF888C0224B4FF0A2
:101BC0008048A84209D0984207D0404505D0B0428D
:101BD00003D0B84201D0604503D122F070044A68B6
:101BE0002243A84209D0984207D0404505D0B042D0
:101BF00003D0B84201D0604503D122F44074CA68D2
:101C000022434C6922F08002224302608A68C26249
:101C10000A688262A84201D0984201D10969016331
:101C2000012141610169C90703D0016921F0010166
:101C30000161BDE8F0810000002C0140000400407B
:101C400000080040000C00400034014010B58468DA
:101C500024F47F4442EA03220A432243826010BDF7
:101C6000826822F070020A4342F0070181607047E7
:101C700010B5036A046A24F001040462846924F044
:101C8000F00444EA021423F00A020A438461026267
:101C900010BD10B5036A046A24F01004046284695C
:101CA00024F4704444EA023223F0A00343EA011111
:101CB0008261016210BD10B5406A0021C185C184F6
:101CC000FFF7C1FB10BD01680C3151E8002F22F471
:101CD000907241E80023002BF5D10168143151E8DE
:101CE000002F22F0010241E80023002BF5D1016B07
:101CF000012909D101680C3151E8002F22F01002AE
:101D000041E80023002BF5D1202180F8421000216A
:101D10000163704710B50168CA6822F04002CA60CA
:101D2000202180F84110FFF765FD002010BD08B5A7
:101D300090F84210222901D0022008BD82684FF499
:101D400080539A4201D1016921B1816A9A421DD022
:101D500052B10BE0816A02685268C2F308020A803D
:101D6000816A891C816209E002697AB1026852685D
:101D700002F07F020A70816A491C8162C18D491E8E
:101D80000904090CC18505D0002008BD026852680D
:101D90000A70F0E70168CA6822F02002CA60016890
:101DA000CA6822F48072CA6001684A6922F001029E
:101DB0004A61202180F8421000214163026B012A10
:101DC00003D0FFF7E1FC002008BD016301680C317E
:101DD00051E8002F22F0100241E80023002BF5D13A
:101DE00001680A68D20602D50A6849680091818DA7
:101DF000FFF728FBE7E7000070B50446206801699B
:101E0000E26821F4405111430161A1682069014356
:101E1000606901432068C26841F20C639A430A4337
:101E2000C26020684169A26921F440711143416197
:101E30001E492068884202D1FFF700F801E0FEF752
:101E4000EDFF00EBC00101EB001061686422890026
:101E5000B0FBF1F3B3FBF2F36FF018067343B0FB82
:101E6000F1F5B0FBF1F605EB8305322303EB051525
:101E7000B5FBF2F5B6FBF2F605F0F00505EB06153D
:101E8000B0FBF1F6B0FBF1F0B0FBF2F06FF018012F
:101E9000484306EB800003EB0010B0FBF2F0216832
:101EA00000F00F002844886070BD00000038014039
:101EB00081628285C28500214164222180F842101E
:101EC0000169002904D00168CA6842F48072CA60BE
:101ED00001684A6942F001024A610068C16841F044
:101EE0002001C1600020704790F84110212901D0E5
:101EF000022070478168B1F5805F01D1016961B14D
:101F0000016A4A1C0262026809785160C18C491E4C
:101F10000904090CC1840AD013E0016A0268098827
:101F2000C1F308015160016A891C0162EEE7016892
:101F3000CA6822F08002CA600068C16841F04001AE
:101F4000C1600020704700000148FFF77DBA000023
:101F5000F0040020FEE700000FB4054B10B503A904
:101F6000044A029800F0EAF810BC5DF814FB000087
:101F700099280008140000200907090E002804DB36
:101F800000F1E02080F80014704700F00F0000F12D
:101F9000E02080F8141D704702E008C8121F08C135
:101FA000002AFAD170477047002001E001C1121FDA
:101FB000002AFBD1704700002DE9FF5F82B00021AD
:101FC000DDE90430020DDDF840B0034318D044F6DB
:101FD0001050A2F2FF3242431514119801281FD06D
:101FE000A5EB0B00401C5FEA000A4FF000064E4FC5
:101FF000DFF83891B046504615D5CAF1000413E019
:10200000119801244AA3012801D16FEA0B0102981B
:10201000119AC0E90031C0E9024206B0BDE8F09F64
:10202000CBF10000DFE704460021404A491842EBAB
:102030000450CDE9001012E0E00707D032463B46DD
:1020400040464946FEF789F98046894632463B4676
:1020500010461946FEF781F906460F466410002C1B
:10206000EAD1DDE90401DDE90023BAF1000F06DA67
:10207000FEF773F942464B46FEF76FF905E0FEF7AF
:10208000DEF942464B46FEF7DAF904460E460022D8
:10209000284BFEF75BFA03D84FF0FF30014607E00C
:1020A0000022254B20463146FEF7B0F8FEF772FBC2
:1020B000102409E0002C0ADB0A220023FEF774FA40
:1020C000039B30321A55641E50EA0102F2D1641C9F
:1020D000039AC4F111031444119A012A03D0012276
:1020E00008430DD10AE0084304D000204FF0110B43
:1020F000119072E7A3EB0B056D1E0DE05B4504DD4F
:102100004FF0000205F1010504E003DA4FF0000290
:10211000A5F10105002AECD002981199C0E902311D
:10212000C0E9004579E70000000014400000F03FDE
:10213000300000000000F0430000E03F2DE9FF4FB9
:1021400095B09A46884606460025EEE1252877D1C7
:1021500000242746F94A0121039400E0044316F8BD
:10216000013F203B01FA03F01042F7D130782A28D2
:1021700011D06FF02F033078A0F13002092A16D861
:10218000039A44F0020402EB820203EB4202104481
:10219000761C0390EFE758F8042B0392002A03DA29
:1021A000504244F40054039044F00204761C30780A
:1021B0002E2816D116F8010F44F004042A280DD059
:1021C0006FF02F023078A0F13003092B09D807EB0C
:1021D000870302EB4303C718761CF3E758F8047B28
:1021E000761C30786C280FD006DC4C2817D0682875
:1021F0000DD06A2814D104E0742810D07A280FD1A9
:102200000DE044F400140AE044F4801401E044F4C6
:1022100040147278824202D104F58014761C761C38
:10222000307866280BD013DC582877D009DC0028DA
:1022300075D04528F6D04628F4D047281AD193E126
:1022400018E0632835D0642879D0652812D18BE155
:10225000702873D008DC6728F1D069286FD06E2809
:102260000DD06F2806D1ACE073282CD0752874D01F
:10227000782853D05246179990476D1C54E1C4F307
:102280000250022809D003280DD0D8F800100428E5
:102290000DD00D6008F1040846E1D8F80010EA17E7
:1022A000C1E90052F6E7D8F800100D80F2E70D7092
:1022B000F0E718F8041B8DF8001000208DF80100DD
:1022C000EB46012003E058F804BB4FF0FF306107F4
:1022D0004FF0000102D40DE009F101018946B94235
:1022E0000FDA8145F8DB1BF809100029F4D108E06A
:1022F00009F1010189468142FADB1BF80910002926
:10230000F6D103985346A0EB090721463846179AA1
:1023100000F080FA284400EB090507E044E008E1FA
:102320000DE01BF8010B524617999047B9F10109CE
:10233000F7D2534621463846179AF2E039E00A218F
:10234000C4F302524FF0000B0091022A06D058F855
:10235000040BC117032A09D00AE023E008F10700A3
:1023600020F00702F2E80201904605E000B2C11732
:10237000042A01D140B2C117002906DA0A46002119
:10238000404261EB02012D2202E0220504D52B22FE
:102390008DF80420012203E0E20701D02022F7E7B4
:1023A000914657E00A2100E010214FF0000B009108
:1023B0000BE010214FF0000B44F0040408270091BB
:1023C00003E008204FF0000B0090C4F30252022AF1
:1023D00005D058F8040B0021032A08D008E008F1C2
:1023E000070020F00702F2E80201904603E080B205
:1023F000042A00D1C0B24FF0000922072AD5327852
:10240000702A07D0DDF800C08CF0100C5CEA0B0CD1
:1024100005D00EE040228DF80420012208E050EAA9
:10242000010306D030238DF804308DF805200222F8
:102430009146009B83F0080353EA0B030AD150EA4C
:10244000010201D1620705D530228DF804204FF03A
:1024500001097F1E3278582A04D039A20C920CAAA6
:1024600002920BE03BA2F9E75B46009AFEF79CF86C
:102470000C9B9B5C029A521E0292137050EA01025E
:10248000F2D1029804A9081A00F1200B600702D5C6
:1024900024F4803400E001275F4502DDA7EB0B0048
:1024A00000E0002000EB0B01009003984944401A23
:1024B0000390E00306D453462146179A039800F090
:1024C000A9F90544002706E001A85246C05D179906
:1024D00090476D1C7F1C4F45F6DBE0030CD553463F
:1024E0002146179A039800F095F9054404E030203E
:1024F0005246179990476D1C0099481E009000297C
:10250000F5DC08E00298029952460078491C0291D5
:10251000179990476D1CBBF10001ABF1010BF1DC89
:102520005BE100F065F90544761C307800287FF403
:102530000DAE19B02846BDE8F08F00000928010053
:102540003031323334353637383961626364656629
:1025500000000000303132333435363738394142EB
:102560004344454600000000600700D4062708F1F8
:10257000070020F00700F0E80223804603F0004C3B
:102580005FEA0C0001D097A009E0200501D596A0D4
:1025900005E0E00701D095A001E0AFF24C001390F8
:1025A000307823F0004365280CD006DC452809D09C
:1025B00046281DD047287FD13BE0662818D06728E1
:1025C0007AD136E00021112F01DB112000E0781CC8
:1025D000CDE9000104A90CA8FFF7EEFCDDE90D012F
:1025E0000C9A4FF0000B07F10109109200914EE098
:1025F0004FF000400097CDE9011004A90CA8FFF7A7
:10260000DBFCDDE90D020C9B0F994FF0000B9146AE
:102610001093009211B9791C00EB0109B7EB090086
:1026200003D4C0F1FF3B07F10109A9EB07000190BA
:1026300042E0012F00DA01270021112F01DD1120D6
:1026400000E03846CDE9000104A90CA8FFF7B4FC6E
:10265000DDE90D010C9A00914FF0000BB946109284
:1026600021070FD4009A4A4503DA914601E0A9F107
:102670000109B9F1010F05DD109AA9F10101515CC1
:102680003029F4D0B84202DA10F1040F03DA012144
:10269000CDE9011010E0002803DC8344A9EB000120
:1026A00002E0411C494500DD8946A0EB0B00401CBF
:1026B00001904FF000400290200705D40198484552
:1026C00002DB4FF0FF30019000208DF84B000298A4
:1026D0000DF14B07B0F1004F25D002200C902B20BC
:1026E0000D90029800280CDA404202902D200D90A7
:1026F00007E00A210298FDF741FF3031029007F808
:10270000011D0C99481E0C900029F2DC029800284B
:10271000EFD1791E0D980870307800F0200040F05D
:10272000450007F8020D11A8C01BC01D02901398A8
:10273000007800B1012000EB0901019801EBE07184
:10274000029801440398401A401E0390E00306D407
:1027500053462146179A039800F05CF805441398F5
:10276000007818B15246179990476D1CE00323D5A5
:1027700053462146179A039800F04CF805441BE095
:10278000BBF1000F07DB0098584504DD109817993E
:1027900010F80B0001E0179930205246904701983D
:1027A0000BF1010B401E05F10105019004D12E2013
:1027B0005246179990476D1CB9F10001A9F1010922
:1027C000DEDC05E017F8010B5246179990476D1CA7
:1027D0000299481E02900029F4DC53462146179ABC
:1027E00003989EE62D0000002B0000002000000052
:1027F0002DE9F041044600251E461746880404D4FE
:1028000005E039462020B0476D1C641EF9D52846E6
:10281000BDE8F0812DE9F041044600251E469046B2
:10282000C80301D5302700E02027880404D505E03F
:1028300041463846B0476D1C641EF9D52846BDE8B0
:10284000F081000001490860704700000C00002082
:1028500010B54FF47A71484300F002F810BD000043
:1028600070B500214FF0E0256C690A4A12685043A8
:10287000AB69AA699A42FCD003D2A3EB02031944C4
:1028800003E0A4EB02063344194413468142F0D31B
:1028900070BD00000C00002004490A685206FCD5F7
:1028A000024AC1B2121D1160704700000038014099
:1028B00086B0FFF757F92C48FEF71AFD2BA0FFF75B
:1028C0004BFBFEF779F9DFF8C890C9F8080000F073
:1028D000AFF8A9F800004FF47A7A20212D48FEF7CE
:1028E0005BF94FF4FA70FFF7B3FFFEF765F9D9F81B
:1028F0000810401A5045F0D301F57A71C9F8081054
:1029000000F096F8B9F80010411A89B2A9F8000051
:10291000D9F8040000EB0108C9F804800846FDF767
:10292000FDFD83461C495846FDF732FC06464046ED
:10293000FDF7F4FD1949FDF72BFCFDF7F4FD044606
:102940000D463046FDF7EFFD06460F465846FDF7AB
:10295000EAFDCDE9035802460B4611A0CDE9006718
:102960000294FFF7F9FAB8E73805002059462D42DE
:102970003720666C6F772073656E736F72206465A5
:102980006D6F2073746172742E2E2E0D0A0000007C
:1029900000000020000C01400000304100002544F0
:1029A000663D252E316620487A2C20466C6F773D97
:1029B000252E3266204C2F6D696E2C20546F746169
:1029C0006C3D252E3366204C202870756C73657322
:1029D0003D256C75290D0A0070B590B0064628217A
:1029E00006A8FDF7CAFB142101A8FDF7C6FB0121CB
:1029F0000691090407910024089402250D950E9173
:102A00000F9606A8FEF750FA00B1FEE70F200190DE
:102A1000029503944FF4806004900594022101A86C
:102A2000FEF74CF9002800D0FEE710B070BD0000A2
:102A300002480068406A80B27047000038050020F4
:102A40001FB5002400940194029403940B484FF0A6
:102A500080410160446084604FF6FF71C160046191
:102A60008461FEF7F7FB50200090019402940394D8
:102A700069460248FEF772FC1FBD000038050020C1
:102A800010B50B49094A0A60486000208860C86098
:102A9000086188610C2048610846FEF7EDFDBDE83D
:102AA0001040012203490248FEF760BE0038014091
:102AB000F0040020100000200000000000000000D2
:102AC00001020304060708090000000001020304D4
:102AD000010202030405060708090A0B0C0D0E0F7C
:102AE00010100000042B0008000000202800000047
:102AF000981F00082C2B000828000020580900000F
:102B0000A81F0008000000000000000000000000F6
:102B100000000000000000000000000000127A0029
:0C2B200001000000100000000000000098
:0400000508000131BD
:00000001FF
